{
  "_format": "hh-sol-artifact-1",
  "contractName": "CertificateRegistry",
  "sourceName": "contracts/CertificateRegistry.sol",
  "abi": [
    {
      "anonymous": false,
      "inputs": [
        {
          "indexed": true,
          "internalType": "bytes32",
          "name": "merkleRoot",
          "type": "bytes32"
        },
        {
          "indexed": false,
          "internalType": "uint256",
          "name": "count",
          "type": "uint256"
        }
      ],
      "name": "BatchIssued",
      "type": "event"
    },
    {
      "anonymous": false,
      "inputs": [
        {
          "indexed": true,
          "internalType": "bytes32",
          "name": "certId",
          "type": "bytes32"
        },
        {
          "indexed": false,
          "internalType": "address",
          "name": "student",
          "type": "address"
        },
        {
          "indexed": false,
          "internalType": "address",
          "name": "institution",
          "type": "address"
        }
      ],
      "name": "CertificateIssued",
      "type": "event"
    },
    {
      "anonymous": false,
      "inputs": [
        {
          "indexed": true,
          "internalType": "bytes32",
          "name": "certId",
          "type": "bytes32"
        },
        {
          "indexed": false,
          "internalType": "uint256",
          "name": "timestamp",
          "type": "uint256"
        }
      ],
      "name": "CertificateRevoked",
      "type": "event"
    },
    {
      "anonymous": false,
      "inputs": [
        {
          "indexed": true,
          "internalType": "address",
          "name": "account",
          "type": "address"
        },
        {
          "indexed": false,
          "internalType": "enum AccessControl.Role",
          "name": "role",
          "type": "uint8"
        }
      ],
      "name": "RoleGranted",
      "type": "event"
    },
    {
      "anonymous": false,
      "inputs": [
        {
          "indexed": true,
          "internalType": "address",
          "name": "account",
          "type": "address"
        }
      ],
      "name": "RoleRevoked",
      "type": "event"
    },
    {
      "inputs": [],
      "name": "admin",
      "outputs": [
        {
          "internalType": "address",
          "name": "",
          "type": "address"
        }
      ],
      "stateMutability": "view",
      "type": "function"
    },
    {
      "inputs": [
        {
          "internalType": "bytes32",
          "name": "",
          "type": "bytes32"
        }
      ],
      "name": "certificates",
      "outputs": [
        {
          "internalType": "string",
          "name": "ipfsCID",
          "type": "string"
        },
        {
          "internalType": "bytes32",
          "name": "certHash",
          "type": "bytes32"
        },
        {
          "internalType": "address",
          "name": "student",
          "type": "address"
        },
        {
          "internalType": "address",
          "name": "institution",
          "type": "address"
        },
        {
          "internalType": "uint256",
          "name": "issueDate",
          "type": "uint256"
        },
        {
          "internalType": "uint256",
          "name": "expiryDate",
          "type": "uint256"
        },
        {
          "internalType": "bool",
          "name": "revoked",
          "type": "bool"
        },
        {
          "internalType": "bytes32",
          "name": "merkleRoot",
          "type": "bytes32"
        }
      ],
      "stateMutability": "view",
      "type": "function"
    },
    {
      "inputs": [
        {
          "internalType": "bytes32",
          "name": "certId",
          "type": "bytes32"
        }
      ],
      "name": "getCertificate",
      "outputs": [
        {
          "components": [
            {
              "internalType": "string",
              "name": "ipfsCID",
              "type": "string"
            },
            {
              "internalType": "bytes32",
              "name": "certHash",
              "type": "bytes32"
            },
            {
              "internalType": "address",
              "name": "student",
              "type": "address"
            },
            {
              "internalType": "address",
              "name": "institution",
              "type": "address"
            },
            {
              "internalType": "uint256",
              "name": "issueDate",
              "type": "uint256"
            },
            {
              "internalType": "uint256",
              "name": "expiryDate",
              "type": "uint256"
            },
            {
              "internalType": "bool",
              "name": "revoked",
              "type": "bool"
            },
            {
              "internalType": "bytes32",
              "name": "merkleRoot",
              "type": "bytes32"
            }
          ],
          "internalType": "struct CertificateRegistry.Certificate",
          "name": "",
          "type": "tuple"
        }
      ],
      "stateMutability": "view",
      "type": "function"
    },
    {
      "inputs": [
        {
          "internalType": "address",
          "name": "student",
          "type": "address"
        }
      ],
      "name": "getStudentCertificates",
      "outputs": [
        {
          "internalType": "bytes32[]",
          "name": "",
          "type": "bytes32[]"
        }
      ],
      "stateMutability": "view",
      "type": "function"
    },
    {
      "inputs": [
        {
          "internalType": "address",
          "name": "account",
          "type": "address"
        },
        {
          "internalType": "enum AccessControl.Role",
          "name": "role",
          "type": "uint8"
        }
      ],
      "name": "grantRole",
      "outputs": [],
      "stateMutability": "nonpayable",
      "type": "function"
    },
    {
      "inputs": [
        {
          "internalType": "address",
          "name": "account",
          "type": "address"
        },
        {
          "internalType": "enum AccessControl.Role",
          "name": "role",
          "type": "uint8"
        }
      ],
      "name": "hasRole",
      "outputs": [
        {
          "internalType": "bool",
          "name": "",
          "type": "bool"
        }
      ],
      "stateMutability": "view",
      "type": "function"
    },
    {
      "inputs": [
        {
          "internalType": "bytes32",
          "name": "certId",
          "type": "bytes32"
        }
      ],
      "name": "isRevoked",
      "outputs": [
        {
          "internalType": "bool",
          "name": "",
          "type": "bool"
        }
      ],
      "stateMutability": "view",
      "type": "function"
    },
    {
      "inputs": [
        {
          "internalType": "bytes32",
          "name": "merkleRoot",
          "type": "bytes32"
        },
        {
          "internalType": "uint256",
          "name": "count",
          "type": "uint256"
        }
      ],
      "name": "issueBatch",
      "outputs": [],
      "stateMutability": "nonpayable",
      "type": "function"
    },
    {
      "inputs": [
        {
          "internalType": "string",
          "name": "ipfsCID",
          "type": "string"
        },
        {
          "internalType": "bytes32",
          "name": "certHash",
          "type": "bytes32"
        },
        {
          "internalType": "address",
          "name": "student",
          "type": "address"
        },
        {
          "internalType": "uint256",
          "name": "expiryDate",
          "type": "uint256"
        }
      ],
      "name": "issueCertificate",
      "outputs": [
        {
          "internalType": "bytes32",
          "name": "",
          "type": "bytes32"
        }
      ],
      "stateMutability": "nonpayable",
      "type": "function"
    },
    {
      "inputs": [
        {
          "internalType": "uint256",
          "name": "",
          "type": "uint256"
        }
      ],
      "name": "revocationRegistry",
      "outputs": [
        {
          "internalType": "bytes32",
          "name": "",
          "type": "bytes32"
        }
      ],
      "stateMutability": "view",
      "type": "function"
    },
    {
      "inputs": [
        {
          "internalType": "bytes32",
          "name": "certId",
          "type": "bytes32"
        }
      ],
      "name": "revokeCertificate",
      "outputs": [],
      "stateMutability": "nonpayable",
      "type": "function"
    },
    {
      "inputs": [
        {
          "internalType": "address",
          "name": "account",
          "type": "address"
        }
      ],
      "name": "revokeRole",
      "outputs": [],
      "stateMutability": "nonpayable",
      "type": "function"
    },
    {
      "inputs": [
        {
          "internalType": "address",
          "name": "",
          "type": "address"
        }
      ],
      "name": "roles",
      "outputs": [
        {
          "internalType": "enum AccessControl.Role",
          "name": "",
          "type": "uint8"
        }
      ],
      "stateMutability": "view",
      "type": "function"
    },
    {
      "inputs": [
        {
          "internalType": "address",
          "name": "",
          "type": "address"
        },
        {
          "internalType": "uint256",
          "name": "",
          "type": "uint256"
        }
      ],
      "name": "studentCertificates",
      "outputs": [
        {
          "internalType": "bytes32",
          "name": "",
          "type": "bytes32"
        }
      ],
      "stateMutability": "view",
      "type": "function"
    },
    {
      "inputs": [
        {
          "internalType": "bytes32",
          "name": "certId",
          "type": "bytes32"
        },
        {
          "internalType": "bytes32[]",
          "name": "proof",
          "type": "bytes32[]"
        },
        {
          "internalType": "bytes32",
          "name": "merkleRoot",
          "type": "bytes32"
        }
      ],
      "name": "verifyCertificate",
      "outputs": [
        {
          "internalType": "bool",
          "name": "",
          "type": "bool"
        }
      ],
      "stateMutability": "view",
      "type": "function"
    }
  ],
  "bytecode": "0x608060405234801561001057600080fd5b5060018054336001600160a01b0319909116811782556000908152602081905260409020805460ff1916909117905561130b8061004e6000396000f3fe608060405234801561001057600080fd5b50600436106100f55760003560e01c806395a8c58d11610097578063c6cbc52a11610066578063c6cbc52a14610234578063ebc63bc014610247578063f333fe0814610267578063f851a4401461028757600080fd5b806395a8c58d146101cb57806399374642146101de578063c3934f0e1461020e578063c543f17c1461022157600080fd5b80634294857f116100d35780634294857f146101485780634e4af1be1461017e578063742f06881461019157806380e52e3f146101b857600080fd5b8063104cdade146100fa57806324eeb07e1461010f5780633e84023614610135575b600080fd5b61010d610108366004610cf6565b6102b2565b005b61012261011d366004610d7b565b61033e565b6040519081526020015b60405180910390f35b61010d610143366004610e32565b610517565b61016e610156366004610e6d565b60009081526002602052604090206006015460ff1690565b604051901515815260200161012c565b61012261018c366004610e6d565b6105dd565b6101a461019f366004610e6d565b6105fe565b60405161012c989796959493929190610ecc565b61010d6101c6366004610f20565b6106d8565b61016e6101d9366004610e32565b610768565b6102016101ec366004610f20565b60006020819052908152604090205460ff1681565b60405161012c9190610f51565b61012261021c366004610f79565b6107b1565b61016e61022f366004610fa3565b6107e2565b61010d610242366004610e6d565b610950565b61025a610255366004610f20565b610ab1565b60405161012c919061105d565b61027a610275366004610e6d565b610b1d565b60405161012c91906110a1565b60015461029a906001600160a01b031681565b6040516001600160a01b03909116815260200161012c565b6003803360009081526020819052604090205460ff1660058111156102d9576102d9610f3b565b146102ff5760405162461bcd60e51b81526004016102f690611129565b60405180910390fd5b827f835dd9a4025b21b7d3b654449062a51049bd4dfe5933e878b6aef846c71ae3788360405161033191815260200190565b60405180910390a2505050565b60006003803360009081526020819052604090205460ff16600581111561036757610367610f3b565b146103845760405162461bcd60e51b81526004016102f690611129565b60408051602081018790526bffffffffffffffffffffffff19606087901b169181019190915242605482015260009060740160408051601f198184030181528282528051602091820120610100840183528a84528382018a90526001600160a01b0389168484015233606085015242608085015260a08401889052600060c0850181905260e085018190528181526002909252919020825191935090819061042c90826111d8565b506020828101516001838101919091556040808501516002850180546001600160a01b03199081166001600160a01b0393841617909155606087015160038088018054909316918416919091179091556080870151600487015560a0870151600587015560c087015160068701805460ff191691151591909117905560e090960151600790950194909455928916600081815294835283852080549283018155855293829020018490558151928352339083015282917f96acc7d29f59de96f3b52573049182d873062e60b6dd01e0bf81b3cb8f107822910160405180910390a29695505050505050565b6001546001600160a01b0316331461055e5760405162461bcd60e51b815260206004820152600a60248201526927b7363c9030b236b4b760b11b60448201526064016102f6565b6001600160a01b0382166000908152602081905260409020805482919060ff1916600183600581111561059357610593610f3b565b0217905550816001600160a01b03167faa259565575c834bc07e74dca784b4071676133ac78513b431afb6ee7edae121826040516105d19190610f51565b60405180910390a25050565b600481815481106105ed57600080fd5b600091825260209091200154905081565b6002602052600090815260409020805481906106199061114f565b80601f01602080910402602001604051908101604052809291908181526020018280546106459061114f565b80156106925780601f1061066757610100808354040283529160200191610692565b820191906000526020600020905b81548152906001019060200180831161067557829003601f168201915b505050600184015460028501546003860154600487015460058801546006890154600790990154979894976001600160a01b0394851697509290931694509260ff169088565b6001546001600160a01b0316331461071f5760405162461bcd60e51b815260206004820152600a60248201526927b7363c9030b236b4b760b11b60448201526064016102f6565b6001600160a01b038116600081815260208190526040808220805460ff19169055517f6107a4a5447a4208ba14e3ec240bccf0a93828124ccf501af04601031070b1839190a250565b600081600581111561077c5761077c610f3b565b6001600160a01b03841660009081526020819052604090205460ff1660058111156107a9576107a9610f3b565b149392505050565b600360205281600052604060002081815481106107cd57600080fd5b90600052602060002001600091509150505481565b600083815260026020526040808220815161010081019092528054839291908290829061080e9061114f565b80601f016020809104026020016040519081016040528092919081815260200182805461083a9061114f565b80156108875780601f1061085c57610100808354040283529160200191610887565b820191906000526020600020905b81548152906001019060200180831161086a57829003601f168201915b50505091835250506001820154602082015260028201546001600160a01b039081166040830152600383015416606082015260048201546080820152600582015460a0820152600682015460ff16151560c08083019190915260079092015460e09091015281015190915015610901576000915050610949565b60008160a0015111801561091857508060a0015142115b15610927576000915050610949565b821561094057610938848487610c67565b915050610949565b60200151151590505b9392505050565b6003803360009081526020819052604090205460ff16600581111561097757610977610f3b565b146109945760405162461bcd60e51b81526004016102f690611129565b600082815260026020526040902060038101546001600160a01b031633146109f55760405162461bcd60e51b81526020600482015260146024820152734e6f7420796f757220636572746966696361746560601b60448201526064016102f6565b600681015460ff1615610a3c5760405162461bcd60e51b815260206004820152600f60248201526e105b1c9958591e481c995d9bdad959608a1b60448201526064016102f6565b60068101805460ff191660019081179091556004805491820181556000527f8a35acfbc15ff81a39ae7d344fd709f28e8600b4aa8c65c6b64bfe7fe36bd19b0183905560405142815283907fba2ff7aceccd1742d00e386f05d483c89cbb4e8ebf02234c436df1ec854261fd90602001610331565b6001600160a01b038116600090815260036020908152604091829020805483518184028101840190945280845260609392830182828015610b1157602002820191906000526020600020905b815481526020019060010190808311610afd575b50505050509050919050565b6040805161010081018252606080825260006020830181905292820183905281018290526080810182905260a0810182905260c0810182905260e08101919091526000828152600260205260409081902081516101008101909252805482908290610b879061114f565b80601f0160208091040260200160405190810160405280929190818152602001828054610bb39061114f565b8015610c005780601f10610bd557610100808354040283529160200191610c00565b820191906000526020600020905b815481529060010190602001808311610be357829003601f168201915b50505091835250506001820154602082015260028201546001600160a01b039081166040830152600383015416606082015260048201546080820152600582015460a0820152600682015460ff16151560c082015260079091015460e09091015292915050565b600082610c748584610c7d565b14949350505050565b600081815b8451811015610cc257610cae82868381518110610ca157610ca1611298565b6020026020010151610cca565b915080610cba816112ae565b915050610c82565b509392505050565b6000818310610ce6576000828152602084905260409020610949565b5060009182526020526040902090565b60008060408385031215610d0957600080fd5b50508035926020909101359150565b634e487b7160e01b600052604160045260246000fd5b604051601f8201601f1916810167ffffffffffffffff81118282101715610d5757610d57610d18565b604052919050565b80356001600160a01b0381168114610d7657600080fd5b919050565b60008060008060808587031215610d9157600080fd5b843567ffffffffffffffff80821115610da957600080fd5b818701915087601f830112610dbd57600080fd5b8135602082821115610dd157610dd1610d18565b610de3601f8301601f19168201610d2e565b92508183528981838601011115610df957600080fd5b8181850182850137600081838501015282975080890135965050505050610e2260408601610d5f565b9396929550929360600135925050565b60008060408385031215610e4557600080fd5b610e4e83610d5f565b9150602083013560068110610e6257600080fd5b809150509250929050565b600060208284031215610e7f57600080fd5b5035919050565b6000815180845260005b81811015610eac57602081850181015186830182015201610e90565b506000602082860101526020601f19601f83011685010191505092915050565b6000610100808352610ee08184018c610e86565b602084019a909a5250506001600160a01b039687166040820152949095166060850152608084019290925260a0830152151560c082015260e00152919050565b600060208284031215610f3257600080fd5b61094982610d5f565b634e487b7160e01b600052602160045260246000fd5b6020810160068310610f7357634e487b7160e01b600052602160045260246000fd5b91905290565b60008060408385031215610f8c57600080fd5b610f9583610d5f565b946020939093013593505050565b600080600060608486031215610fb857600080fd5b8335925060208085013567ffffffffffffffff80821115610fd857600080fd5b818701915087601f830112610fec57600080fd5b813581811115610ffe57610ffe610d18565b8060051b915061100f848301610d2e565b818152918301840191848101908a84111561102957600080fd5b938501935b838510156110475784358252938501939085019061102e565b979a979950505050604095909501359450505050565b6020808252825182820181905260009190848201906040850190845b8181101561109557835183529284019291840191600101611079565b50909695505050505050565b60208152600082516101008060208501526110c0610120850183610e86565b915060208501516040850152604085015160018060a01b0380821660608701528060608801511660808701525050608085015160a085015260a085015160c085015260c085015161111560e086018215159052565b5060e0949094015192909301919091525090565b6020808252600c908201526b155b985d5d1a1bdc9a5e995960a21b604082015260600190565b600181811c9082168061116357607f821691505b60208210810361118357634e487b7160e01b600052602260045260246000fd5b50919050565b601f8211156111d357600081815260208120601f850160051c810160208610156111b05750805b601f850160051c820191505b818110156111cf578281556001016111bc565b5050505b505050565b815167ffffffffffffffff8111156111f2576111f2610d18565b61120681611200845461114f565b84611189565b602080601f83116001811461123b57600084156112235750858301515b600019600386901b1c1916600185901b1785556111cf565b600085815260208120601f198616915b8281101561126a5788860151825594840194600190910190840161124b565b50858210156112885787850151600019600388901b60f8161c191681555b5050505050600190811b01905550565b634e487b7160e01b600052603260045260246000fd5b6000600182016112ce57634e487b7160e01b600052601160045260246000fd5b506001019056fea26469706673582212204b35c90f4db83e4891c2c404f9dde887d5a2436a89764a10e075f8db912f558a64736f6c63430008140033",
  "linkReferences": {},
  "deployedLinkReferences": {}
}